:10000000572883120313AA0013302A02031800345E
:10001000831203138A012A08820754345234593454
:1000200043344B345434453420345034C5342034B4
:1000300053344E345534523452340D340A3400346F
:1000400083120313AC00AD011130AE0034288312CB
:100050000313AD0DAF0D2C082D022F180314031C34
:10006000342883120313AD0083120313AA0DAB0DC2
:10007000AE0B27282A08080083120313AC00AD0139
:100080001030AE0083120313AA0DAB0DAD0DAF0DF2
:100090002C082D022F180314031C5128831203135C
:1000A000AD0083120313AE0B42282D080800831203
:1000B0000313BB01BC01A001A101A201EB2183122A
:1000C00003179E019F01F030831603138700061269
:1000D0000613861787130713861607122C22F6219C
:1000E00083120313B301B401B501B6010130B700A7
:1000F0000330B8000330B9000730BA000616BB0160
:100100000830831203133B0203188D283B08132287
:10011000412283120313BB0A8028831203130612A1
:10012000C0304122831203130616BB010430831230
:1001300003133B020318A72833303B0784008313C3
:1001400030300007412283120313BB0A9628831222
:10015000031307130712871383120313861ABE288B
:10016000071683120313861EB12883120313071385
:10017000BC01B301B401B501B6010712043083120A
:1001800003133C020318DB28861BDB28A301003085
:10019000512183120313871783120313861FCC2860
:1001A0003330831203133C0784008313210880003B
:1001B000BC0AA10187130430831203133C02031C01
:1001C000F12837083306031DF12838083406031DCB
:1001D000F12839083506031DF1283A0836060319B7
:1001E0000717831203132010851A2014A010051A74
:1001F000A01403302005023A031D0329A10A210897
:100200000A3A0319A1010330831203132005031DC9
:100210001129A108031D0E290A30A100831203131E
:10022000A1033330831203133C0784008313210896
:1002300080000612C0304122831203130616BB0150
:100240000430831203133B020318312933303B0778
:100250008400831330300007412283120313BB0A4A
:100260002029831203132108A200AC288312031350
:10027000AA0005100A30AB0083120313AB08031960
:1002800050291230AC0083120313AC0B4329000039
:100290000314AA0C031C051003180514AB033C2916
:1002A000080083120313A400A50183120313250879
:1002B0002307012083120313A600A6080319E929C6
:1002C000831203132608253A031DE129A50A2508F0
:1002D0002307012083120313A6002608643A03199A
:1002E0007E29113A03198F29173A0319C129013AB6
:1002F0000319D629463A0319DB29DE298312031391
:10030000A41F85292D3036218729203036218030C1
:10031000831203132402031C8F29A409A40A831245
:1003200003132408AA00AB016430202083120313B6
:100330002A08A80030302807362183120313240826
:10034000AA00AB0164303C2083120313A9002908E2
:10035000AA00AB010A302020831203132A08A80048
:10036000303028073621831203132908AA00AB0175
:100370000A303C2083120313A800303028073621AE
:10038000E52983120313A701083083120313270200
:100390000318E529A41FCF2931303621D129303067
:1003A000362183120313A40DA70AC4298312031351
:1003B00024083621E52925303621E529213036214A
:1003C000E529831203132608362183120313A50A95
:1003D000552908000800831203179E018316031392
:1003E00085160516071087100711080083120317DA
:1003F0001E109E10031305148316051085140800A3
:10040000FF00073083160313810027308312031384
:100410000107FF007F08831203130106031D0A2A48
:10042000FF0B052A080083120313A30002308A0081
:100430002308820743346F34643465343A342034FB
:1004400020342034FF0002308A007F0882070934FC
:1004500009342034203420342830702283120313CE
:1004600006123330412232304122283041220C30F2
:100470004122013041220630412283120313061625
:10048000080083120313A300A31F8711A31B871562
:10049000231F0711231B0715A31E8710A31A8714F8
:1004A000231E0710231A0714061300000617053031
:1004B000702283120313A31D8711A3198715231D0F
:1004C000071123190715A31C8710A3188714231CD1
:1004D0000710231807140613000006170530702AAA
:1004E00083120313A40002308316810083120313C6
:1004F00081017D30831203130102031C792A8312C8
:080500000313A40B762A080086
:02400E00D400DC
:00000001FF
